:020000040800F2
:10000000A0A100204902000875A00008BD840008D6
:10001000759E0008C50C0008812201080000000040
:10002000000000000000000000000000D1FD0008FA
:10003000493A00080000000091A30008F5FD0008FF
:1000400063020008630200086302000863020008FC
:1000500063020008630200086302000863020008EC
:1000600063020008630200084D3A000863020008BA
:10007000B927000863020008630200086302000851
:1000800063020008630200086302000863020008BC
:10009000C90C00086302000863020008593A00080E
:1000A000630200086302000863020008630200089C
:1000B0006302000809FF00081DFF00086302000832
:1000C000630200086302000863020008630200087C
:1000D0006302000829200108630200083920010892
:1000E000630200086302000863020008630200085C
:1000F000630200086302000863020008630200084C
:10010000630200086302000831FF00086302000870
:10011000630200086302000845FF000859FF000859
:10012000C9270008A9380008B9380008C9380008EC
:10013000630200086302000863020008630200080B
:10014000D90C00086302000863020008630200087B
:1001500063020008D9380008E93800086521010861
:1001600063020008630200086302000863020008DB
:100170006302000863020008630200080000000038
:10018000630200086302000800F002F800F04CF877
:100190000AA090E8000C82448344AAF10107DA45E2
:1001A00001D100F041F8AFF2090EBAE80F0013F0E8
:1001B000010F18BFFB1A43F0010318471870010024
:1001C000387001000A4410F8014B14F00F0508BF05
:1001D00010F8015B240908BF10F8014B6D1E05D013
:1001E00010F8013B6D1E01F8013BF9D1641E03D0EC
:1001F000641E01F8015BFBD19142E4D3704700001B
:100200000023002400250026103A28BF78C1FBD81F
:10021000520728BF30C148BF0B6070471FB516F0AA
:1002200006FC1FBD10B510BD00F07DF91146FFF7AB
:10023000F5FF13F0AFF900F09BF903B4FFF7F2FFFD
:1002400003BC00F09FF900000948804709480047B7
:10025000FEE7FEE7FEE7FEE7FEE7FEE7FEE7FEE776
:10026000FEE7FEE704480549054A064B70470000D3
:10027000F5FE000889010008A0610020A0A100206F
:10028000A0810020A081002053EA020C00F06980C8
:100290002DE9F04B4FF00006002B1FBFB3FA83F59A
:1002A00003FA05F424FA05F65E4012BF1643B2FACB
:1002B00082F502FA05F4C5F120051EBF22FA05FCFD
:1002C00044EA0C04203556EA044C4FEA144418BFA3
:1002D000641C4FF000084FF00009904271EB030CD2
:1002E00039D3002919BFB1FA81F701FA07F6B0FA3C
:1002F00080F700FA07F6C7F120071EBF20FA07FCB7
:1003000046EA0C062037B6FBF4FCA7EB0507103FC6
:1003100007F01F0BCBF120062CFA06F60CFA0BFBAC
:1003200044BFB3460026202FA4BF5E464FF0000B0B
:100330005BEA060C08BF4FF0010B19EB0B0948EB09
:100340000608ABFB027C06FB02CC0BFB03CCC01BFC
:1003500071EB0C01C1E70B46024641464846BDE839
:10036000F08B13B5084318BF4FF0FF300146AFF3D1
:100370000080BDE81C407047032A40F2308010F036
:10038000030C00F0158011F8013BBCF1020F624430
:1003900098BF11F801CB00F8013B38BF11F8013BC1
:1003A000A2F1040298BF00F801CB38BF00F8013B6E
:1003B00011F0030300F07C80083AC0F0088051F887
:1003C000043B083A51F804CBA0E80810F5E7121DE9
:1003D0005CBF51F8043B40F8043BAFF30080D20708
:1003E00024BF11F8013B11F801CB48BF11F8012BD4
:1003F00024BF00F8013B00F801CB48BF00F8012BF7
:1004000070474FF000020429C0F0128010F0030C76
:1004100000F01B80CCF1040CBCF1020F18BF00F8F7
:10042000012BA8BF20F8022BA1EB0C0100F00DB8A6
:100430005FEAC17C24BF00F8012B00F8012B48BF04
:1004400000F8012B70474FF0000200B513469446A8
:100450009646203922BFA0E80C50A0E80C50B1F11C
:100460002001BFF4F7AF090728BFA0E80C5048BF30
:100470000CC05DF804EB890028BF40F8042B08BFCE
:10048000704748BF20F8022B11F0804F18BF00F8CA
:10049000012B704770477047704710B500F03EF869
:1004A000006810BD10B5044600F038F8046010BDB7
:1004B00010B5203AC0F00B80B1E81850A0E81850F1
:1004C000B1E81850A0E81850203ABFF4F5AF5FEA41
:1004D000027C24BFB1E81850A0E8185044BF18C9E6
:1004E00018C0BDE810405FEA827C24BF51F8043B8D
:1004F00040F8043B08BF7047D20728BF31F8023BE1
:1005000048BF11F8012B28BF20F8023B48BF00F874
:10051000012B704700487047480100200048704791
:100520004801002070477546FFF7F4FFAE4605000E
:100530006946534620F00700854618B020B5FFF7FE
:1005400091FEBDE820404FF000064FF000074FF04D
:1005500000084FF0000BAC46ACE8C009ACE8C0099D
:10056000ACE8C009ACE8C00921F007018D4670472E
:1005700010B50446AFF300802046BDE81040FFF7F9
:100580005CBE000001491820ABBEFEE72600020059
:1005900082B00190009101984FF07E510160019866
:1005A00000214160019881600198C16002B07047EC
:1005B00080B586B005908DED040A039102920598EE
:1005C000039991ED000A91ED011A91ED022AF1EEE5
:1005D000400A9FED0F0A32EE000A029991ED002ABF
:1005E000D1ED011AD1ED022AB1EE422A9FED093A6E
:1005F0008DED010AB0EE410A9DED011A8DED003A34
:10060000DDED003A9DED004A08F03EFE06B080BDEB
:10061000D044D8BA0000000080B586B0059007200D
:1006200013F042F8FFE700F08FF9002804D0FFE74D
:10063000642013F039F8F6E740F6C810C2F2000063
:1006400000F11401021D1030049008461146049B6D
:1006500003921A4600F0AEF941F2DC10C2F200003B
:1006600046F61452C0F6010200219FED270ADFED85
:10067000270A09F061FE40F20840C2F20000039927
:10068000FFF786FF40F65860C2F200001021C161FA
:1006900005F054FF002803D0FFE703F02FFAFFE72F
:1006A00040F26C00C2F2000040F65F31C2F200017D
:1006B00008220FF087F941F2DA10C2F2000001219E
:1006C0000170FFE740F6C810C2F2000000F114010B
:1006D000021D40F20840C2F200009FED0D0A029098
:1006E000FFF766FF40F2F030C2F20000021D00F199
:1006F0000803029901900846019912F037FC012085
:1007000012F0D2FF0090DDE700A08C450080894503
:100710006F12833A80B50020C4F20200102101223A
:1007200005F082F880BD000080B50020C4F2020010
:100730001021002205F078F880BD0000704700000D
:1007400080B582B040F20040C4F202000121019164
:10075000019A05F069F802B080BD000080B540F252
:100760000040C4F202000121002205F05DF880BDC6
:1007700085B004900391029204980178407841EA90
:100780000020ADF80600BDF9060000EE100AB8EE34
:10079000C00A40F20000C2F2000090ED001A20EE04
:1007A000010A039981ED000A04998A78C97842EA1E
:1007B0000121ADF80610BDF9061000EE101AB8EED2
:1007C000C00A90ED001A20EE010A039981ED010A9A
:1007D00004990A79497942EA0121ADF80610BDF978
:1007E000061000EE101AB8EEC00A90ED001A20EEC6
:1007F000010A039880ED020A04988179C279007A8F
:10080000000440EA0220084400909DED000AB8EE82
:10081000400A9FED041A20EE010A029880ED000ABA
:1008200005B0704700401C427047000080B582B0A0
:100830000146ADF80600BDF80600009112F034FF45
:1008400002B080BD80B582B00146ADF80600BDF8AB
:100850000600009112F0F4F902B080BD84B003905C
:100860000291019203980178407841EA0020ADF8A6
:100870000200BDF9020000EE100AB8EEC00A40F214
:100880000400C2F2000090ED001A20EE010A029965
:1008900081ED000ABDF9021000EE101AB8EEC00A90
:1008A0009FED271A80EE010A9FED262A20EE020A0C
:1008B000019981ED000A03998A78C97842EA0121F9
:1008C000ADF80210BDF9021000EE101AB8EEC00A21
:1008D00090ED003A20EE030A029981ED010ABDF97C
:1008E000021000EE101AB8EEC00A80EE010A20EEE7
:1008F000020A019981ED010A03990A79497942EACC
:100900000121ADF80210BDF9021000EE101AB8EE88
:10091000C00A90ED003A20EE030A029880ED020A28
:10092000BDF9020000EE100AB8EEC00A80EE010A1E
:1009300020EE020A019880ED020A04B0704700BF61
:10094000000000470000FA4480B582B000208DF816
:100950000700FFF7F3FEFFF767FF11F0D1FD002856
:1009600007D0FFE79DF8070040F080008DF80700F2
:1009700007E011F0E9FC9DF8071008438DF8070027
:10098000FFE712F06BF8002807D0FFE79DF807009B
:1009900040F040008DF8070007E011F0B9FF9DF826
:1009A000071008438DF80700FFE79DF8070002B025
:1009B00080BD000080B58AB00990089107920020A0
:1009C000069005900390FFF7AFFE922000F018F913
:1009D000122105AA062302900846114601921A46E2
:1009E00000F0D0F8FFF796FE9DF814009DF8151062
:1009F00040EA0120ADF81200BDF9120000EE100A25
:100A0000B8EEC00A40F20000C2F2000090ED001AF9
:100A100020EE010A089981ED000A9DF816109DF854
:100A2000172041EA0221ADF81210BDF9121000EEB4
:100A3000101AB8EEC00A90ED001A20EE010A0899CB
:100A400081ED010A9DF818109DF8192041EA022154
:100A5000ADF81210BDF9121000EE101AB8EEC00A6F
:100A600090ED001A20EE010A089880ED020AFFF7C7
:100A700075FE08220398019900F084F8FFF760FEE4
:100A80009DF814000F2844D1FFE79DF816009DF84B
:100A9000171040EA0120ADF81200BDF9120000EE77
:100AA000100AB8EEC00A40F20400C2F2000090ED55
:100AB000001A20EE010A099981ED000A9DF818102C
:100AC0009DF8192041EA0221ADF81210BDF912106B
:100AD00000EE101AB8EEC00A90ED001A20EE010ADE
:100AE000099981ED010A9DF81A109DF81B2041EA31
:100AF0000221ADF81210BDF9121000EE101AB8EE76
:100B0000C00A90ED001A20EE010A099880ED020A51
:100B1000FFE7FFF709FEA22000F072F8222105AAE4
:100B200002230090084611461A4600F02BF8FFF702
:100B3000F1FD9DF814009DF81510C00040EA511019
:100B4000ADF81200BDF91200B0F5806F07DBFFE7CA
:100B5000BDF81200A0F50060ADF81200FFE7BDF986
:100B6000120000EE100AB8EEC00AB4EE001A20EE31
:100B7000010AB3EE071A30EE010A079880ED000A69
:100B80000AB080BD80B586B0134684468DF8170044
:100B900004918DF80F209DF8170040F0800002931B
:100BA000CDF804C000F02CF8FFE79DF80F000028F6
:100BB0000ED0FFE7552000F023F804990870049840
:100BC000013004909DF80F0001388DF80F00ECE71C
:100BD00006B080BD80B584B002468DF80F0002914A
:100BE0009DF80F0040F08000019200F009F85521B7
:100BF0000090084600F004F80299087004B080BD27
:100C000080B584B001468DF80F0068464FF47A72C3
:100C1000026040F65860C2F200000DF10F020DF1C3
:100C20000E034FF0010C029111461A46634605F07F
:100C3000D1FD9DF80E100190084604B080BD000063
:100C400083B002900191029801784078C90041EA8E
:100C50005010ADF80200BDF90200B0F5806F07DB5F
:100C6000FFE7BDF80200A0F50060ADF80200FFE765
:100C7000BDF9020000EE100AB8EEC00AB4EE001A88
:100C800020EE010AB3EE071A30EE010A019880ED5A
:100C9000000A03B07047000080B584B00A460346DE
:100CA0008DF80F008DF80E109DF80F000292019341
:100CB000FFF7A6FF9DF80E1000900846FFF7A0FF73
:100CC00004B080BDFFE7FEE780B540F66830C2F2B1
:100CD000000003F0A5FA80BD80B540F69030C2F266
:100CE000000003F09DFA80BD80B582B0019001F054
:100CF00049FBFFE701F0C6FC40F2C740C2F200002A
:100D000009F020FC40F21840C2F2000002F08AFF15
:100D100000F0F2FA41F6B820C2F2000090ED000AAD
:100D2000BDEEC00A10EE100A41F25421C2F20001D9
:100D300091ED000ABDEEC00A10EE101A41F6B02285
:100D4000C2F2000292ED000A45F65062C2F20002C1
:100D500092ED001A30EE010A45F64862C2F2000236
:100D600092ED001A30EE010ABDEEC00A10EE102A14
:100D700041F24C23C2F2000393ED000A45F64C63A6
:100D8000C2F2000393ED002A30EE020A30EE010AAF
:100D9000BDEEC00A10EE103A01F0C6FC012012F0C0
:100DA00083FC0090A6E7000080B584B00390FFE7C5
:100DB00040F21B50C2F2000000F2112140F29432C6
:100DC000C2F2000209F016FB012816D1FFE740F23B
:100DD0009430C2F200000188090409BA01918178B7
:100DE0008DF80B1001999DF80B20C31C40F668305C
:100DF000C2F2000000F006F8FFE7012012F054FCF8
:100E0000D6E7000080B586B09446059004918DF831
:100E10000F200293049840F6F411C2F2000108601A
:100E200000208860C8609DF80F0008610598029A4C
:100E300001ABCDF800C002F05BFF06B080BD000042
:100E40002DE9F04186B0DDF848C0DDF844E0109CA3
:100E50000F9D0E9E0D9FDDF830800590049103924A
:100E6000029300200190FFE70198002102280091E1
:100E700008DCFFE704980199405C002818BF0120B6
:100E80000090FFE70098C00700280BD0FFE7049808
:100E90000199405C059A511A8870FFE7019801306A
:100EA0000190E1E70598D0F80310D0F80720D0F8BA
:100EB0000B3041F03801C0F80720C0F80310C0F82B
:100EC0000B3003980599D1F80320D1F80730D1F8F9
:100ED0000BC060F30202C1F80730C1F80320C1F86B
:100EE0000BC002980599D1F80320D1F80730D1F84A
:100EF0000BC000F00F0022F4707242EA8010C1F8BB
:100F00000730C1F80300C1F80BC00C980599D1F85F
:100F10000320D1F80730D1F80BC000F00F0022F405
:100F2000705242EA8020C1F80730C1F80300C1F8CE
:100F30000BC00F980599D1F80320D1F80730D1F8EC
:100F40000BC060F30903C1F80320C1F80730C1F8F2
:100F50000BC010980599D1F80320D1F80730D1F8CB
:100F60000BC06FF3DF206FF3942343EA8020C1F8B6
:100F70000320C1F80700C1F80BC011980599D1F8FA
:100F80000320D1F80730D1F80BC06FF35F5343EA69
:100F90004050C1F80320C1F80700C1F80BC00D98FC
:100FA0000599D1F80320D1F80730D1F80BC06FF3C1
:100FB0005F206FF3963242EA8030C1F80730C1F803
:100FC0000300C1F80BC00E980599D1F80320D1F8A1
:100FD0000730D1F80BC06FF3DF5242EAC050C1F8BE
:100FE0000730C1F80300C1F80BC000200190FFE7F3
:100FF00001980E9988420ED2FFE712980078059961
:10100000019A1144C873129801301290FFE70198B9
:1010100001300190ECE706B0BDE8F0812DE9F04F1A
:10102000B7B0DDF81CC1DDF818E1459C449D439E36
:10103000429FDDF80481DDF800919A4693460B91BA
:101040000A90CDF8A8C0CDF8A4E02894279526965C
:101050002597CDF89080CDF88C90229321920B9A11
:1010600020920A9B1F930DF1AC0C0DF17C0E2D24E8
:1010700009906046089171462246CDF81CA0CDF833
:1010800018B0CDF814C00494FFF776F94FF6FF714D
:10109000ADF8421012A9039008460599049AFFF78B
:1010A0006BF90EA91191A5218DF838103321ADF8F7
:1010B000391040F64011C2F2000109788DF83B105A
:1010C00011990422FF230290084611461A4602F0A5
:1010D00085FD8DF83C0040F20130ADF83D004FF445
:1010E0008870ADF8300041F6C820C2F200000078E8
:1010F000012808D1FFE70120ADF8320040F20110CD
:10110000ADF8340076E041F6C820C2F20000007865
:10111000652808D1FFE76520ADF8320040F2651080
:10112000ADF8340065E041F6C820C2F20000007856
:10113000032808D1FFE70320ADF8320040F2031086
:10114000ADF8340054E041F6C820C2F20000007847
:10115000672808D1FFE76720ADF8320040F267103A
:10116000ADF8340043E041F6C820C2F20000007838
:10117000042808D1FFE70420ADF832004FF4827054
:10118000ADF8340032E041F6C820C2F20000007829
:10119000682808D1FFE76820ADF832004FF4B4703A
:1011A000ADF8340021E041F6C820C2F2000000781A
:1011B000052808D1FFE70520ADF8320040F2051000
:1011C000ADF8340010E041F6C820C2F2000000780B
:1011D000692808D1FFE76920ADF8320040F26910B4
:1011E000ADF83400FFE7FFE7FFE7FFE7FFE7FFE7C2
:1011F000FFE7FFE70EA811901199BDF842200723E1
:1012000001900846194602F0B3FCADF842000CA864
:1012100011901198BDF84220062102F0A9FCADF80A
:10122000420012A811901198BDF842202D2102F021
:101230009FFCADF842000198119000211E91FFE73C
:101240001E9806280CD8FFE71198007810F0D6FEFB
:10125000119801301190FFE71E9801301E90EFE7C2
:101260000CA8119000201E90FFE71E9805280CD8AE
:10127000FFE71198007810F0C1FE1198013011902D
:10128000FFE71E9801301E90EFE712A81190002092
:101290001E90FFE71E982C280CD8FFE711980078C5
:1012A00010F0ACFE119801301190FFE71E9801304C
:1012B0001E90EFE70DF14200119000201E90FFE715
:1012C0001E9801280CD8FFE71198007810F096FEC0
:1012D000119801301190FFE71E9801301E90EFE742
:1012E00040F64010C2F20000017801310170002088
:1012F00037B0BDE8F08F000080B5CEB040F2E81006
:10130000C2F20000007D002825D1FFE741F6B82099
:10131000C2F200000021016041F25420C2F200003C
:10132000016041F6B020C2F20000016045F6506055
:10133000C2F20000016041F24C20C2F200000160E4
:1013400045F64C60C2F20000016045F64860C2F20A
:1013500000000160FFE740F2E810C2F20000007DEB
:10136000022819D0FFE740F2E810C2F20000007D29
:10137000032811D0FFE740F2E810C2F20000007D20
:10138000012809D0FFE740F2E810C2F20000007D1A
:10139000042840F0C987FFE740F21840C2F200007D
:1013A00090ED040A40F20C00C2F2000007F0B2F81F
:1013B00041F22430C2F2000080ED000A40F2894080
:1013C000C2F200000078002833D1FFE741F2242068
:1013D000C2F200004FF4FA710180FFE741F22420CD
:1013E000C2F200000088002816D0FFE742F2107019
:1013F0004DF6F001CFF6FF7100224D924D9B01F0AA
:1014000093F941F22420C2F20000018801390180E1
:10141000012012F049F9E1E741F24820C2F2000050
:101420000021016041F6AC20C2F200000121016000
:10143000FFE740F64810C2F2000090ED030A9FED6E
:10144000D81A70EE410A30EE011A9FEDD60A12F05A
:1014500037F840F61C30C2F2000080ED000A40F27E
:10146000E810C2F20000007D022840F08F81FFE703
:1014700040F29B40C2F20000B0F90100404200EE91
:10148000100AB8EEC00A9FEDC81A80EE010A40F2B9
:10149000E810C2F2000080ED060A40F64811C2F2E0
:1014A000000191ED030A40F61C31C2F20001D1EDBA
:1014B000000A40F6D421C2F200014C90084608F020
:1014C00013FE4C9880ED080A40F2E841C2F2000198
:1014D000B1F9021000EE101AB8EEC00A9FEDB31A6F
:1014E00080EE010AD0ED060A41F69040C2F20000FB
:1014F0008DED4B1A08F0F8FDB1EE400A41F6B4202C
:10150000C2F2000080ED000A40F23441C2F2000154
:10151000B1F9021000EE101AB8EEC00A9DED4B1A98
:1015200080EE010A4C9991ED062AF1EE420A41F64D
:101530004842C2F200024A90104608F0D5FD41F23E
:101540005020C2F2000080ED000A40F21841C2F2C1
:10155000000149684990084615F0CEF941EC100B9E
:101560004A9890ED001A499991ED002A31EE021A3D
:1015700011EE100A8DED460B15F0BEF941EC100B83
:1015800051EC100B9FED8A0B53EC102B14F086FDE1
:1015900041EC100B53EC102B9DED460B51EC100B56
:1015A00014F0C8FC41EC100B02F0B2FA51EC100B35
:1015B0009FED810B53EC102B15F0DEF9002872D152
:1015C000FFE740F21840C2F2000090ED010A41F638
:1015D000B421C2F2000191ED001A41F25022C2F290
:1015E000000292ED002A31EE021A11EE103A4590F7
:1015F00018468DED440A4391429215F07DF941EC75
:10160000100B51EC100B9FED6E0B53EC102B419215
:10161000409314F043FD41EC100B51EC100B14F00F
:1016200057FC00EE900A41F2CC30C2F200009DED72
:10163000440A08F059FD41F6B020C2F2000080EDE6
:10164000000A459890ED010A439991ED001A429ADB
:1016500092ED002A31EE021A11EE100A8DED3F0ACA
:1016600015F04AF941EC100B51EC100B419A409BDC
:1016700014F014FD41EC100B51EC100B14F028FC8D
:1016800000EE900A41F25C40C2F200009DED3F0A7C
:1016900008F02AFDB1EE400A41F24C20C2F20000EF
:1016A00080ED000A71E040F21840C2F2000090EDB7
:1016B000010A41F6B421C2F2000191ED001A41F293
:1016C0005022C2F2000292ED002A31EE021A11EE0F
:1016D000103A3E9018468DED3D0A3C913B9215F034
:1016E0000BF941EC100B51EC100B9FED350B53EC4B
:1016F000102B3A92399314F0D1FC41EC100B51ECC1
:10170000100B14F0E5FB00EE900A41F28430C2F2B7
:1017100000009DED3D0A08F0E7FC41F6B020C2F262
:10172000000080ED000A3E9890ED010A3C9991ED91
:10173000001A3B9A92ED002A31EE021A11EE100ABD
:101740008DED380A15F0D8F841EC100B51EC100B68
:101750003A9A399B14F0A2FC41EC100B51EC100B9F
:1017600014F0B6FB00EE900A41F21440C2F2000001
:101770009DED380A08F0B8FCB1EE400A41F24C2069
:10178000C2F2000080ED000AFFE7D6E340F2E81065
:10179000C2F20000007D032840F09C811CE000BFE5
:1017A000000034430000E6C200FEFF4600409C45B6
:1017B00000000000000000C0000000C0CCCCFC3FD6
:1017C000000000000000004000803B4500000000D9
:1017D000000000000080564040F29B40C2F2000032
:1017E000B0F90100404200EE100AB8EEC00A1FED49
:1017F000121A80EE010A40F2E810C2F2000080EDF9
:10180000060A41F6E821C2F200010968016240F2CD
:10181000E840C2F20000B0F9020000EE100AB8EE93
:10182000C00A1FED171A80EE010A41F69040C2F27D
:1018300000001FED1A2AF0EE420A8DED371A8DEDE9
:10184000362A08F051FCB1EE400A41F6B420C2F24B
:10185000000080ED000A40F23441C2F20001B1F90B
:10186000021000EE101AB8EEC00A9DED371A80EE95
:10187000010A41F64841C2F2000135900846DDED0B
:10188000360A08F031FC41F25020C2F2000080ED2F
:10189000000A40F21841C2F200014968349008463B
:1018A00015F02AF841EC100B359890ED001A349998
:1018B00091ED002A31EE021A11EE100A8DED320B75
:1018C00015F01AF841EC100B51EC100B1FED480B02
:1018D00053EC102B14F0E2FB41EC100B53EC102BEB
:1018E0009DED320B51EC100B14F024FB41EC100B6E
:1018F00002F00EF951EC100B1FED510B53EC102BB5
:1019000015F03AF8002872D1FFE740F21840C2F211
:10191000000090ED010A41F6B421C2F2000191ED00
:10192000001A41F25022C2F2000292ED002A31EE7A
:10193000021A11EE103A319018468DED300A2F91AF
:101940002E9214F0D9FF41EC100B51EC100B1FED4F
:10195000640B53EC102B2D922C9314F09FFB41EC55
:10196000100B51EC100B14F0B3FA00EE900A41F298
:10197000CC30C2F200009DED300A08F0B5FB41F614
:10198000B020C2F2000080ED000A319890ED010A0B
:101990002F9991ED001A2E9A92ED002A31EE021A3B
:1019A00011EE100A8DED2B0A14F0A6FF41EC100B7E
:1019B00051EC100B2D9A2C9B14F070FB41EC100B8A
:1019C00051EC100B14F084FA00EE900A41F25C40E6
:1019D000C2F200009DED2B0A08F086FBB1EE400A32
:1019E00041F24C20C2F2000080ED000A71E040F2AA
:1019F0001840C2F2000090ED010A41F6B421C2F293
:101A0000000191ED001A41F25022C2F2000292ED63
:101A1000002A31EE021A11EE103A2A9018468DED86
:101A2000290A2891279214F067FF41EC100B51EC22
:101A3000100B1FED9D0B53EC102B2692259314F0E9
:101A40002DFB41EC100B51EC100B14F041FA00EEA1
:101A5000900A41F28430C2F200009DED290A08F09C
:101A600043FB41F6B020C2F2000080ED000A2A9844
:101A700090ED010A289991ED001A279A92ED002A1B
:101A800031EE021A11EE100A8DED240A14F034FF23
:101A900041EC100B51EC100B269A259B14F0FEFA2A
:101AA00041EC100B51EC100B14F012FA00EE900AFE
:101AB00041F21440C2F200009DED240A08F014FB2C
:101AC000B1EE400A41F24C20C2F2000080ED000A63
:101AD000FFE731E240F2E810C2F20000007D012889
:101AE00040F0A581FFE740F29B40C2F20000B0F950
:101AF000030000EE100AB8EEC00A1FEDD51A80EE02
:101B0000010A40F2E810C2F2000080ED060A40F639
:101B10004811C2F2000191ED030A40F61C31C2F2F5
:101B200000010968239008468DED220A14F0E4FEB6
:101B300041EC100B1FEDDA1B53EC112B51EC100B89
:101B400014F0F8F941EC100B51EC100B14F0C0F943
:101B500000EE900A40F6D420C2F200009DED220A69
:101B600008F0C2FA239880ED080A40F2E841C2F278
:101B70000001B1F9021000EE101AB8EEC00A1FED14
:101B8000EE1A80EE010AD0ED060A41F69040C2F24C
:101B900000008DED211A08F0A7FAB1EE400A41F6D7
:101BA000B420C2F2000080ED000A40F23441C2F2DB
:101BB0000001B1F9021000EE101AB8EEC00A9DED56
:101BC000211A80EE010A239991ED062AF1EE420ACC
:101BD00041F64842C2F200022090104608F084FA12
:101BE00041F25020C2F2000080ED000A40F218419C
:101BF000C2F2000149681F90084614F07DFE41ECD6
:101C0000100B209890ED001A1F9991ED002A31EEEB
:101C1000021A11EE100A8DED1C0B14F06DFE41EC52
:101C2000100B51EC100B9FED860B53EC102B14F0A6
:101C300035FA41EC100B53EC102B9DED1C0B51ECC5
:101C4000100B14F077F941EC100B01F061FF51EC2F
:101C5000100B9FED7D0B53EC102B14F08DFE002824
:101C600072D1FFE740F21840C2F2000090ED010A85
:101C700041F6B421C2F2000191ED001A41F2502266
:101C8000C2F2000292ED002A31EE021A11EE103A71
:101C90001B9018468DED1A0A1991189214F02CFE1B
:101CA00041EC100B51EC100B9FED690B53EC102B1A
:101CB0001792169314F0F2F941EC100B51EC100B43
:101CC00014F006F900EE900A41F2CC30C2F20000A6
:101CD0009DED1A0A08F008FA41F6B020C2F20000A1
:101CE00080ED000A1B9890ED010A199991ED001AF8
:101CF000189A92ED002A31EE021A11EE100A8DEDBB
:101D0000150A14F0F9FD41EC100B51EC100B179A69
:101D1000169B14F0C3F941EC100B51EC100B14F0AE
:101D2000D7F800EE900A41F25C40C2F200009DED4F
:101D3000150A08F0D9F9B1EE400A41F24C20C2F27E
:101D4000000080ED000A71E040F21840C2F200008D
:101D500090ED010A41F6B421C2F2000191ED001AA2
:101D600041F25022C2F2000292ED002A31EE021A34
:101D700011EE103A149018468DED130A129111923B
:101D800014F0BAFD41EC100B51EC100B9FED300B31
:101D900053EC102B10920F9314F080F941EC100BC0
:101DA00051EC100B14F094F800EE900A41F28430DC
:101DB000C2F200009DED130A08F096F941F6B0203A
:101DC000C2F2000080ED000A149890ED010A129909
:101DD00091ED001A119A92ED002A31EE021A11EEDD
:101DE000100A8DED0E0A14F087FD41EC100B51EC3A
:101DF000100B109A0F9B14F051F941EC100B51ECA1
:101E0000100B14F065F800EE900A41F21440C2F293
:101E100000009DED0E0A08F067F9B1EE400A41F2AC
:101E20004C20C2F2000080ED000AFFE783E040F2A0
:101E3000E810C2F20000007D04287BD112E000BF50
:101E400000000000000000C0000000C0CCCCFC3F3F
:101E5000000000000000004000FEFF4600401C465D
:101E600000803B4540F29B40C2F20000B0F9010007
:101E7000404200EE100AB8EEC00A1FED091A80EECB
:101E8000010A40F2E810C2F2000080ED060A40F6B6
:101E90004811C2F2000191ED030A40F61C31C2F272
:101EA0000001D1ED000A40F6D421C2F200010D90EC
:101EB000084608F019F90D9880ED080A40F2E8414B
:101EC000C2F20001B1F9021000EE101AB8EEC00A19
:101ED00090ED061A1FED1F2A61EE020A40F67420EB
:101EE000C2F200008DED0C2A08F0FEF841F6B02099
:101EF000C2F2000080ED000A40F23440C2F200005D
:101F0000B0F9020000EE100AB8EEC00A0D9890ED8C
:101F1000061A9DED0C2A61EE420A40F62C20C2F210
:101F2000000008F0E1F841F24C20C2F2000080ED20
:101F3000000AFFE7FFE7FFE7FFE740F2E810C2F221
:101F40000000016A45F65462C2F200021160006AA4
:101F500045F65861C2F20001086040F2E840C2F262
:101F60000000B0F9020000EE100AB8EEC00A1FED42
:101F7000441A80EE010AD1ED000A41F6DC50C2F2AB
:101F800000000B900A928DED091A08F0ADF845F6A5
:101F90005060C2F2000080ED000A40F23440C2F20C
:101FA0000000B0F9020000EE100AB8EEC00A9DED84
:101FB000091A80EE010A0A98D0ED000A0B9808F081
:101FC00093F845F64C60C2F2000080ED000A40F242
:101FD0004840C2F20000008841F24821C2F20001EC
:101FE000096801EB812100EBC10000EE100AB8EE98
:101FF000C00A46F29810C2F2000080ED000A40F2DA
:10200000FC41C2F20001098841F6AC22C2F2000292
:10201000126802EB822201EBC20100EE101AB8EE48
:10202000C00A46F29C11C2F2000181ED000A90ED57
:10203000000A9FEDCC1AB4EE410AF1EE10FA0DDA67
:10204000FFE746F29810C2F2000090ED000A9FED03
:10205000C61A30EE010A80ED000AFFE746F29C1036
:10206000C2F2000090ED000A9FEDBE1AB4EE410AE4
:10207000F1EE10FA0DDAFFE746F29C10C2F2000012
:1020800090ED000A9FEDB81A30EE010A80ED000ACB
:10209000FFE740F2E810C2F20000007D032807D1FC
:1020A000FFE741F66030C2F20000002101606EE0FF
:1020B00040F2E840C2F20000B0F9020014F082F9E8
:1020C00041EC100B51EC100B9FEDA30B53EC102BBC
:1020D0000892079313F0E2FF41EC100B40F23440FA
:1020E000C2F20000B0F902008DED040B14F06AF9A1
:1020F00041EC100B51EC100B089A079B13F0CEFF2C
:1021000041EC100B9DED041B51EC110B53EC102B0B
:1021100014F008FB41EC100B51EC100B9FED8C0BF5
:1021200053EC102B13F0BAFF41EC100B51EC100BD9
:1021300013F0CEFE00EE100A40F2E810C2F20000EA
:10214000D0ED060A41F6B430C2F2000007F0CCFF31
:10215000B1EE400A41F22430C2F2000090ED001AC4
:1021600041F22830C2F20000DFED7D0A8DED030A56
:10217000B0EE410A07F0B8FF9DED031A31EE400AB8
:1021800041F66030C2F2000080ED000AFFE741F640
:102190006030C2F2000090ED000A40F22400C2F26A
:1021A000000006F0B7F941F6FC30C2F2000080ED05
:1021B000000A40F2E810C2F20000007D042813D1AA
:1021C000FFE741F66430C2F200004CF20001C4F2B5
:1021D0009941016041F66830C2F200004CF2000102
:1021E000C4F24661016038E041F6FC30C2F2000002
:1021F00090ED000A40F25001C2F2000191ED001A88
:1022000030EE010A9FED591A20EE010A9FED581A8F
:1022100030EE010A9FED571A30EE010A41F66432A2
:10222000C2F2000282ED000A90ED000A91ED001A60
:1022300030EE010A9FED501A20EE010A9FED4F1A71
:1022400030EE010A9FED4E1A30EE010A41F6683079
:10225000C2F2000080ED000AFFE746F29810C2F2D9
:10226000000090ED000A41F66430C2F20000D0EDAB
:10227000000A41F2A440C2F2000007F035FF41F22B
:102280005820C2F2000080ED000A46F29C11C2F212
:10229000000191ED000A41F66831C2F20001D1ED72
:1022A000000A41F2EC41C2F200010290084607F038
:1022B0001BFF41F6BC20C2F2000080ED000A40F294
:1022C0004841C2F20001B1F9021000EE101AB8EE56
:1022D000C00A0299D1ED000A41F62052C2F2000272
:1022E0000190104607F000FF41F25420C2F20000B6
:1022F00080ED000A40F2FC40C2F20000B0F902009A
:1023000000EE100AB8EEC00A0198D0ED000A41F6BE
:102310006850C2F2000007F0E7FE41F6B820C2F2B2
:10232000000080ED000AFFE740F28A40C2F20000A0
:10233000017840F28942C2F20002117040F2E811C5
:10234000C2F20001097D01704EB080BD00BF00BF28
:102350000000000000000040000000000070A740E6
:102360000000000000007A440020004600083146CA
:102370000008B14500C09944008031C60080B145D5
:102380000000AA4480B590B041F6B430C2F200001B
:1023900040F2BC02C2F200020021B6EE000A9FED3C
:1023A000B11A0F918DED0E0AF0EE410A8DED0D1A66
:1023B00007F0C2FF40F67420C2F2000040F2540160
:1023C000C2F200019FEDA80A0F9A0C9111460C9AD7
:1023D0008DED0B0ADDED0B0A07F0AEFF40F62C2069
:1023E000C2F200000F990C9A9DED0B0ADDED0B0A6D
:1023F00007F0A2FF41F28430C2F2000040F2740103
:10240000C2F200010F9A0A9111460A9A9DED0B0A39
:10241000DDED0B0A07F090FF41F21440C2F200001C
:102420000F990A9A9DED0B0ADDED0B0A07F084FF68
:1024300041F2CC30C2F2000040F28C01C2F2000145
:102440000F9A09911146099A9DED0B0ADDED0B0AD1
:1024500007F072FF41F25C40C2F200000F99099A46
:102460009DED0B0ADDED0B0A07F066FF41F64840D3
:10247000C2F2000040F2C801C2F20001B1EE0C0A43
:10248000B1EE041A0F9A08911146089A8DED070AC9
:10249000F0EE410A8DED061A07F04EFF41F690402E
:1024A000C2F200000F99089A9DED070ADDED060AB9
:1024B00007F042FF41F6DC50C2F2000040F2041285
:1024C000C2F200020F999DED0B0ADDED0B0A07F039
:1024D00033FF41F66C30C2F2000040F2B002C2F2AB
:1024E00000020F999DED0E0ADDED0D0A07F024FFA5
:1024F00041F2A440C2F2000040F29802C2F200028F
:102500009FED5A0A9FED5A1A0F998DED050AF0EECC
:10251000410A8DED041A07F00FFF41F2EC40C2F2C0
:10252000000040F2A402C2F200020F999DED050ADC
:10253000DDED040A07F000FF41F62050C2F2000072
:1025400040F2EC02C2F200029FED4A0A9FED4A1AE5
:102550000F998DED030AF0EE410A8DED021A07F096
:10256000EBFE41F66850C2F2000040F2F802C2F2FF
:1025700000020F999DED030ADDED020A07F0DCFE73
:1025800041F6D840C2F2000040F2E002C2F200027E
:10259000B0EE000AF7EE000A0F998DED010A07F080
:1025A000CBFE41F60040C2F2000040F2D402C2F27B
:1025B0000002DFED320A0F999DED0E0A07F0BCFE16
:1025C00040F6D420C2F2000040F26002C2F20002E3
:1025D0000F999DED010ADDED010A07F0ADFE41F214
:1025E0002830C2F2000040F28002C2F200020F99CD
:1025F0009DED020ADDED020A07F09EFE41F2342055
:10260000C2F2000041F24421C2F200019FED1C0A17
:102610008DED000A10F03CFC41F6C850C2F20000FB
:1026200041F6D851C2F200019DED000A10F030FCD5
:1026300041F21030C2F2000041F22031C2F200013A
:102640009DED000A10F024FC41F27030C2F200004F
:1026500041F28031C2F200019DED000A10F018FC39
:1026600010B080BD9A99993E000080460000344425
:102670000000C8420060EA4600401C46CDCC4C3EFB
:102680006F12833A81B040F29B40C2F20000407961
:1026900001460128009120D0FFE70098062831D09C
:1026A000FFE700980A2826D0FFE7009812281BD0E1
:1026B000FFE700982A282CD0FFE70098862821D031
:1026C000FFE700988A2816D0FFE7009892280BD0E1
:1026D000FFE70098AA281CD022E040F2E810C2F2DE
:1026E0000000002101751CE040F2E810C2F2000079
:1026F0000321017515E040F2E810C2F2000002214A
:1027000001750EE040F2E810C2F2000001210175EF
:1027100007E040F2E810C2F200000421017500E079
:10272000FFE701B070470000B0B588B09C46964600
:102730000C460546ADF81E00ADF81C10ADF81A2089
:10274000ADF8183040F60C20C2F2000040F2FF1144
:10275000016000218160C160082101619DF81F10A6
:1027600040F28B42C2F2000211709DF81E105170AF
:102770009DF81D1091709DF81C10D1709DF81B10D4
:1027800011719DF81A1051719DF8191091719DF8F1
:102790001810D17140F69031C2F2000105AB0490DF
:1027A00008460499CDF80CC0CDF808E001940095D6
:1027B00001F09EFA08B0B0BD80B540F63850C2F2C4
:1027C000000002F06FFB80BD80B5E4B040F65860B9
:1027D000C2F20000C06C006846F25941C4F2020126
:1027E0008842C0F0F380FFE746F20440C4F20200E2
:1027F000006840F65861C2F20001C96C096846F2EF
:102800001002C4F202029142639003D1FFE720203C
:102810006290D6E040F65860C2F20000C06C0068DA
:1028200046F21041C4F20201884203D1FFE72020A2
:102830006190C3E040F65860C2F20000C06C0068CE
:1028400046F27001C4F20201884203D1FFE7202062
:102850006090B0E040F65860C2F20000C06C0068C2
:1028600046F27041C4F20201884203D1FFE7202002
:102870005F909DE040F65860C2F20000C06C0068B6
:1028800046F22801C4F20201884204D1FFE74FF466
:1028900000605E9089E040F65860C2F20000C06CB3
:1028A000006846F22841C4F20201884204D1FFE7E1
:1028B0004FF400605D9075E040F65860C2F2000091
:1028C000C06C006846F28801C4F20201884204D15B
:1028D000FFE74FF400605C9061E040F65860C2F2A0
:1028E0000000C06C006846F28841C4F202018842D0
:1028F00004D1FFE74FF400605B904DE040F6586074
:10290000C2F20000C06C006846F24001C4F202014D
:10291000884204D1FFE74FF400105A9039E040F6A6
:102920005860C2F20000C06C006846F24041C4F238
:102930000201884204D1FFE74FF40010599025E0CE
:1029400040F65860C2F20000C06C006846F2A00178
:10295000C4F20201884204D1FFE74FF400105890FE
:1029600011E040F65860C2F20000C06C006846F208
:10297000A041C4F202014FF00062884208BF4FF448
:1029800000125892FFE758985990FFE759985A90CB
:10299000FFE75A985B90FFE75B985C90FFE75C98D5
:1029A0005D90FFE75D985E90FFE75E985F90FFE7C0
:1029B0005F986090FFE760986190FFE76198629090
:1029C000FFE76298639908405790F7E240F6586035
:1029D000C2F20000C06C006846F2B901C4F2020104
:1029E0008842C0F0F380FFE746F20040C4F20200E4
:1029F000006840F65861C2F20001C96C096846F2ED
:102A00001002C4F202029142569003D1FFE7202047
:102A10005590D6E040F65860C2F20000C06C0068E5
:102A200046F21041C4F20201884203D1FFE72020A0
:102A30005490C3E040F65860C2F20000C06C0068D9
:102A400046F27001C4F20201884203D1FFE7202060
:102A50005390B0E040F65860C2F20000C06C0068CD
:102A600046F27041C4F20201884203D1FFE7202000
:102A700052909DE040F65860C2F20000C06C0068C1
:102A800046F22801C4F20201884204D1FFE74FF464
:102A90000060519089E040F65860C2F20000C06CBE
:102AA000006846F22841C4F20201884204D1FFE7DF
:102AB0004FF40060509075E040F65860C2F200009C
:102AC000C06C006846F28801C4F20201884204D159
:102AD000FFE74FF400604F9061E040F65860C2F2AB
:102AE0000000C06C006846F28841C4F202018842CE
:102AF00004D1FFE74FF400604E904DE040F658607F
:102B0000C2F20000C06C006846F24001C4F202014B
:102B1000884204D1FFE74FF400104D9039E040F6B1
:102B20005860C2F20000C06C006846F24041C4F236
:102B30000201884204D1FFE74FF400104C9025E0D9
:102B400040F65860C2F20000C06C006846F2A00176
:102B5000C4F20201884204D1FFE74FF400104B9009
:102B600011E040F65860C2F20000C06C006846F206
:102B7000A041C4F202014FF00062884208BF4FF446
:102B800000124B92FFE74B984C90FFE74C984D900A
:102B9000FFE74D984E90FFE74E984F90FFE74F9814
:102BA0005090FFE750985190FFE751985290FFE7FF
:102BB00052985390FFE753985490FFE754985590DC
:102BC000FFE75598569908404A90F4E140F658605E
:102BD000C2F20000C06C006846F25901C4F2020162
:102BE0008842C0F0F380FFE746F20400C4F202001E
:102BF000006840F65861C2F20001C96C096846F2EB
:102C00001002C4F202029142499003D1FFE7202052
:102C10004890D6E040F65860C2F20000C06C0068F0
:102C200046F21041C4F20201884203D1FFE720209E
:102C30004790C3E040F65860C2F20000C06C0068E4
:102C400046F27001C4F20201884203D1FFE720205E
:102C50004690B0E040F65860C2F20000C06C0068D8
:102C600046F27041C4F20201884203D1FFE72020FE
:102C700045909DE040F65860C2F20000C06C0068CC
:102C800046F22801C4F20201884204D1FFE74FF462
:102C90000060449089E040F65860C2F20000C06CC9
:102CA000006846F22841C4F20201884204D1FFE7DD
:102CB0004FF40060439075E040F65860C2F20000A7
:102CC000C06C006846F28801C4F20201884204D157
:102CD000FFE74FF40060429061E040F65860C2F2B6
:102CE0000000C06C006846F28841C4F202018842CC
:102CF00004D1FFE74FF4006041904DE040F658608A
:102D0000C2F20000C06C006846F24001C4F2020149
:102D1000884204D1FFE74FF40010409039E040F6BC
:102D20005860C2F20000C06C006846F24041C4F234
:102D30000201884204D1FFE74FF400103F9025E0E4
:102D400040F65860C2F20000C06C006846F2A00174
:102D5000C4F20201884204D1FFE74FF400103E9014
:102D600011E040F65860C2F20000C06C006846F204
:102D7000A041C4F202014FF00062884208BF4FF444
:102D800000123E92FFE73E983F90FFE73F98409049
:102D9000FFE740984190FFE741984290FFE7429853
:102DA0004390FFE743984490FFE744984590FFE73E
:102DB00045984690FFE746984790FFE74798489028
:102DC000FFE74898499908403D90F1E046F200003D
:102DD000C4F20200006840F65861C2F20001C96CFA
:102DE000096846F21002C4F2020291423C9003D1FB
:102DF000FFE720203B90D6E040F65860C2F200008A
:102E0000C06C006846F21041C4F20201884203D14E
:102E1000FFE720203A90C3E040F65860C2F200007D
:102E2000C06C006846F27001C4F20201884203D10E
:102E3000FFE720203990B0E040F65860C2F2000071
:102E4000C06C006846F27041C4F20201884203D1AE
:102E5000FFE7202038909DE040F65860C2F2000065
:102E6000C06C006846F22801C4F20201884204D115
:102E7000FFE74FF40060379089E040F65860C2F2F7
:102E80000000C06C006846F22841C4F2020188428A
:102E900004D1FFE74FF40060369075E040F65860CB
:102EA000C2F20000C06C006846F28801C4F2020160
:102EB000884204D1FFE74FF40060359061E040F6AE
:102EC0005860C2F20000C06C006846F28841C4F24B
:102ED0000201884204D1FFE74FF4006034904DE0D6
:102EE00040F65860C2F20000C06C006846F2400133
:102EF000C4F20201884204D1FFE74FF4001033907E
:102F000039E040F65860C2F20000C06C006846F23A
:102F10004041C4F20201884204D1FFE74FF400109F
:102F2000329025E040F65860C2F20000C06C0068A4
:102F300046F2A001C4F20201884204D1FFE74FF437
:102F40000010319011E040F65860C2F20000C06CF1
:102F5000006846F2A041C4F202014FF000628842CC
:102F600008BF4FF400123192FFE731983290FFE72B
:102F700032983390FFE733983490FFE734983590D8
:102F8000FFE735983690FFE736983790FFE7379898
:102F90003890FFE738983990FFE739983A90FFE783
:102FA0003A983B90FFE73B983C9908403D90FFE7FB
:102FB0003D984A90FFE74A985790FFE757980028B6
:102FC00000F06F84FFE740F65860C2F20000C06C6A
:102FD000006846F25941C4F202018842C0F0EF8015
:102FE000FFE740F65860C2F20000C06C006846F28D
:102FF0001001C4F20201884203D1FFE72020309083
:10300000D6E040F65860C2F20000C06C006846F29C
:103010001041C4F20201884203D1FFE720202F9023
:10302000C3E040F65860C2F20000C06C006846F28F
:103030007001C4F20201884203D1FFE720202E90E4
:10304000B0E040F65860C2F20000C06C006846F282
:103050007041C4F20201884203D1FFE720202D9085
:103060009DE040F65860C2F20000C06C006846F275
:103070002801C4F20201884204D1FFE74FF4006046
:103080002C9089E040F65860C2F20000C06C0068E5
:1030900046F22841C4F20201884204D1FFE74FF40E
:1030A00000602B9075E040F65860C2F20000C06CE2
:1030B000006846F28801C4F20201884204D1FFE7A9
:1030C0004FF400602A9061E040F65860C2F20000C0
:1030D000C06C006846F28841C4F20201884204D103
:1030E000FFE74FF4006029904DE040F65860C2F2CF
:1030F0000000C06C006846F24001C4F20201884240
:1031000004D1FFE74FF40010289039E040F65860F2
:10311000C2F20000C06C006846F24041C4F20201F5
:10312000884204D1FFE74FF40010279025E040F6D5
:103130005860C2F20000C06C006846F2A001C4F200
:103140000201884204D1FFE74FF40010269011E0FD
:1031500040F65860C2F20000C06C006846F2A04120
:10316000C4F202014FF00062884208BF4FF400121F
:103170002692FFE726982790FFE727982890FFE7F9
:1031800028982990FFE729982A90FFE72A982B9002
:10319000FFE72B982C90FFE72C982D90FFE72D98B8
:1031A0002E90FFE72E982F90FFE72F983090FFE7A3
:1031B000309846F20C41C4F202010860EDE240F69C
:1031C0005860C2F20000C06C006846F2B901C4F257
:1031D00002018842C0F0F080FFE740F65860C2F27A
:1031E0000000C06C006846F21001C4F2020188427F
:1031F00003D1FFE720202590D6E040F65860C2F2C8
:103200000000C06C006846F21041C4F2020188421E
:1032100003D1FFE720202490C3E040F65860C2F2BB
:103220000000C06C006846F27001C4F202018842DE
:1032300003D1FFE720202390B0E040F65860C2F2AF
:103240000000C06C006846F27041C4F2020188427E
:1032500003D1FFE7202022909DE040F65860C2F2A3
:103260000000C06C006846F22801C4F202018842E6
:1032700004D1FFE74FF40060219089E040F65860E8
:10328000C2F20000C06C006846F22841C4F202019C
:10329000884204D1FFE74FF40060209075E040F6CB
:1032A0005860C2F20000C06C006846F28801C4F2A7
:1032B0000201884204D1FFE74FF400601F9061E0F3
:1032C00040F65860C2F20000C06C006846F28841C7
:1032D000C4F20201884204D1FFE74FF400601E905F
:1032E0004DE040F65860C2F20000C06C006846F243
:1032F0004001C4F20201884204D1FFE74FF40010FC
:103300001D9039E040F65860C2F20000C06C0068C1
:1033100046F24041C4F20201884204D1FFE74FF473
:1033200000101C9025E040F65860C2F20000C06C0E
:10333000006846F2A001C4F20201884204D1FFE70E
:103340004FF400101B9011E040F65860C2F20000EC
:10335000C06C006846F2A041C4F202014FF0006266
:10336000884208BF4FF400121B92FFE71B981C9085
:10337000FFE71C981D90FFE71D981E90FFE71E9821
:103380001F90FFE71F982090FFE720982190FFE70C
:1033900021982290FFE722982390FFE7239824901A
:1033A000FFE724982590FFE7259846F20841C4F2EC
:1033B000020108601A90EEE140F65860C2F2000087
:1033C000C06C006846F25901C4F202018842C0F0A4
:1033D000F080FFE740F65860C2F20000C06C006861
:1033E00046F21001C4F20201884203D1FFE7202017
:1033F0001990D6E040F65860C2F20000C06C006838
:1034000046F21041C4F20201884203D1FFE72020B6
:103410001890C3E040F65860C2F20000C06C00682B
:1034200046F27001C4F20201884203D1FFE7202076
:103430001790B0E040F65860C2F20000C06C00681F
:1034400046F27041C4F20201884203D1FFE7202016
:1034500016909DE040F65860C2F20000C06C006813
:1034600046F22801C4F20201884204D1FFE74FF47A
:103470000060159089E040F65860C2F20000C06C10
:10348000006846F22841C4F20201884204D1FFE7F5
:103490004FF40060149075E040F65860C2F20000EE
:1034A000C06C006846F28801C4F20201884204D16F
:1034B000FFE74FF40060139061E040F65860C2F2FD
:1034C0000000C06C006846F28841C4F202018842E4
:1034D00004D1FFE74FF4006012904DE040F65860D1
:1034E000C2F20000C06C006846F24001C4F2020162
:1034F000884204D1FFE74FF40010119039E040F604
:103500005860C2F20000C06C006846F24041C4F24C
:103510000201884204D1FFE74FF40010109025E02B
:1035200040F65860C2F20000C06C006846F2A0018C
:10353000C4F20201884204D1FFE74FF400100F905B
:1035400011E040F65860C2F20000C06C006846F21C
:10355000A041C4F202014FF00062884208BF4FF45C
:1035600000120F92FFE70F981090FFE7109811904C
:10357000FFE711981290FFE712981390FFE7139856
:103580001490FFE714981590FFE715981690FFE741
:1035900016981790FFE717981890FFE7189819905A
:1035A000FFE7199846F20C01C4F2020108600E9080
:1035B000EEE040F65860C2F20000C06C006846F2CF
:1035C0001001C4F20201884203D1FFE720200D90D0
:1035D000D6E040F65860C2F20000C06C006846F2C7
:1035E0001041C4F20201884203D1FFE720200C9071
:1035F000C3E040F65860C2F20000C06C006846F2BA
:103600007001C4F20201884203D1FFE720200B9031
:10361000B0E040F65860C2F20000C06C006846F2AC
:103620007041C4F20201884203D1FFE720200A90D2
:103630009DE040F65860C2F20000C06C006846F29F
:103640002801C4F20201884204D1FFE74FF4006070
:10365000099089E040F65860C2F20000C06C006832
:1036600046F22841C4F20201884204D1FFE74FF438
:103670000060089075E040F65860C2F20000C06C2F
:10368000006846F28801C4F20201884204D1FFE7D3
:103690004FF40060079061E040F65860C2F200000D
:1036A000C06C006846F28841C4F20201884204D12D
:1036B000FFE74FF4006006904DE040F65860C2F21C
:1036C0000000C06C006846F24001C4F2020188426A
:1036D00004D1FFE74FF40010059039E040F6586040
:1036E000C2F20000C06C006846F24041C4F2020120
:1036F000884204D1FFE74FF40010049025E040F623
:103700005860C2F20000C06C006846F2A001C4F22A
:103710000201884204D1FFE74FF40010039011E04A
:1037200040F65860C2F20000C06C006846F2A0414A
:10373000C4F202014FF00062884208BF4FF4001249
:103740000392FFE703980490FFE704980590FFE7D2
:1037500005980690FFE706980790FFE707980890FE
:10376000FFE708980990FFE709980A90FFE70A9891
:103770000B90FFE70B980C90FFE70C980D90FFE77C
:103780000D9846F20801C4F2020108600E90FFE7AE
:103790000E981A90FFE71A98FFE740F66730C2F2DA
:1037A000000000788007002822D5FFE740F6673048
:1037B000C2F20000017801F0FD01017040F200400A
:1037C000C4F2020001210291029A02F02DF840F6A3
:1037D0005F30C2F20000013040F6C811C2F20001B1
:1037E000143140F2FC32C2F20002FDF737F8FFE775
:1037F00040F66A10C2F2000000788007002820D549
:10380000FFE740F66A10C2F20000017801F0FD0106
:1038100001700020C4F202001021012202F004F81D
:1038200040F65C10C2F20000023040F6C811C2F24D
:1038300000010A1D203101911146019AFCF798FF01
:10384000FFE740F66910C2F2000000788007002808
:1038500024D5FFE740F66910C2F20000017801F0BC
:10386000FD0101700020C4F202001021012201F0CC
:10387000DBFF40F66510C2F20000023040F6C811CE
:10388000C2F2000101F1100200911146FDF7D8F9D2
:10389000009890ED040A0FF0F9FCFFE70FF0D0FB61
:1038A000FFE764B080BD000080B540F69850C2F2DA
:1038B000000001F0F7FA80BD80B540F67840C2F212
:1038C000000001F0EFFA80BD80B540F61840C2F26A
:1038D000000001F0E7FA80BD80B540F6F850C2F272
:1038E000000001F0DFFA80BD80B540F6D840C2F29A
:1038F000000001F0D7FA80BD82B0019001980078F5
:1039000010384AF6AB21CAF6AA21A0FB0101090929
:103910000091009946F6F842C0F60102515C019A06
:10392000D1650099042907D3FFE7019801680422B3
:1039300062F30901816506E00198016840F2FF32F7
:1039400091438165FFE70198806D02B070470000E8
:1039500086B0059000208DF813000598806A0390CA
:1039600005988069002823D1FFE703980328029077
:103970001CD80299DFE801F0020E0219059890F8B0
:103980002F00C007002804D0FFE701208DF81300A6
:10399000FFE70CE00598C06AB0F1C07F04D1FFE7F3
:1039A00001208DF81300FFE701E000E0FFE747E0AA
:1039B00005988069B0F5005F26D1FFE703980328DA
:1039C00001901FD80199DFE801F0020602120120E0
:1039D0008DF8130017E0059890F82F00C007002815
:1039E00004D0FFE701208DF81300FFE70BE00598F6
:1039F000C06AB0F1C07F04D1FFE701208DF8130049
:103A0000FFE700E0FFE71AE003980328009004D3E3
:103A1000FFE70098032804D00FE001208DF8130081
:103A20000CE0059890F82F00C007002804D0FFE7AD
:103A300001208DF81300FFE700E0FFE7FFE7FFE755
:103A40009DF8130006B070477047000080B5102045
:103A500001F0EAFC80BD000080B5202001F0E4FC0C
:103A600080BD000080B584B01346039002918DF8AC
:103A7000072000208DF806000398009304F034FD21
:103A8000002801D0FFE737E00398D0F80D02B0F529
:103A9000FD7F01D9FFE72FE0FFE79DF806009DF8C5
:103AA0000710884228DAFFE70398D0F8091201319D
:103AB0004CF21162C1F6B07251FB02F2931103EBAA
:103AC000D27240F2052302FB1311C0F809120298CA
:103AD0009DF80610405C0399D1F809228854039898
:103AE000D0F80D120131C0F80D12FFE79DF8060065
:103AF00001308DF80600D0E704B080BD81B0EFF34F
:103B0000108072B60090FFE7FEE7000000000000A2
:103B100080B584B08DED000B009801999FED100BDE
:103B200053EC102B12F028FF00280FD1FFE79DED7A
:103B3000000B9FED0D1B51EC110B53EC102B12F0F1
:103B4000F1FD41EC100B8DED020B04E09DED000B3F
:103B50008DED020BFFE79DED020B04B080BD00BFB1
:103B600000000000000000000000000000000080D5
:103B700084B0134602900191ADF80220029800280B
:103B800005D1FFE74FF6FF70ADF80E0022E0FFE72A
:103B90000198411E0191002817D0FFE70298411CAF
:103BA000029100788DF80100BDF802009DF8011027
:103BB0004140C9B246F6D252C0F6010232F81110A5
:103BC00081EA1020ADF80200E2E7BDF80200ADF88E
:103BD0000E00FFE7BDF80E0004B0704783B0134637
:103BE000029001918DF80320FFE70198411E019199
:103BF000002813D0FFE79DF8030002994A1C0292A7
:103C0000097848408DF802009DF8020046F6F82138
:103C1000C0F60101085C8DF80300E6E79DF803009B
:103C200003B0704781B0009040F2F030C2F2000063
:103C300090ED020A9FED171A80EE010A9FED162AF9
:103C400020EE020A009981ED020A90ED010A80EE51
:103C5000010A20EE020A009981ED010A90ED000AA6
:103C600080EE010A20EE020A009880ED000A40F280
:103C7000FC30C2F200004168009A516190ED000AE8
:103C8000B1EE400A009981ED040A80680099C8608D
:103C900001B07047DB0F49400000344384B002900C
:103CA0000191029890F820008DF803009DF8030020
:103CB000012805D0FFE79DF8030002280AD1FFE79D
:103CC0000198029909684A691043486100208DF8FB
:103CD0000F0008E00298416A41F48021416201200E
:103CE0008DF80F00FFE79DF80F0004B0704700004B
:103CF00088B00690059104920393069890F82000EE
:103D00008DF8070006980068806800900598806824
:103D1000002801D1FFE700E0FFE79DF80700012838
:103D200006D0FFE79DF80700022840F08F80FFE7EC
:103D30009DF80300400700280CD4FFE79DF803001E
:103D40000007002806D4FFE79DF80300C0060028FE
:103D500073D5FFE70098C0F3016002900298032832
:103D600009D3FFE70698416A41F40001416201204E
:103D70008DF81F0073E00298012101FA00F0039909
:103D800008600598806800280DD1FFE70598016854
:103D9000C06840EA415006990968029A01EB021195
:103DA000C1F880010EE0059841688268C06842EA67
:103DB000C101084306990968029A01EB0211C1F892
:103DC0008001FFE70598006906990968029A01EBEE
:103DD0000211C1F884010598007D01280CD1FFE78C
:103DE00006980068029900EB0110D0F8841141F4A4
:103DF0008071C0F88411FFE704984068069909684B
:103E0000029A01EB0211C1F88C010498006806992E
:103E10000968029A01EB0211C1F88801069800684E
:103E2000029900EB0110D0F8801141F00101C0F8B7
:103E3000801100208DF81F0011E00698416A41F4BE
:103E40000011416201208DF81F0008E00698416AC8
:103E500041F48021416201208DF81F00FFE79DF8A9
:103E60001F0008B07047000086B0049003910498CA
:103E700000680190049890F820008DF803009DF8E8
:103E80000300012806D0FFE79DF80300022840F058
:103E9000B880FFE746F20040C4F2000001900198AC
:103EA000D0F8001241F00101C0F800120198D0F8DA
:103EB000001221F47C51C0F800120398406A019965
:103EC000D1F8002242EA0020C1F8000203984069BC
:103ED00000F01F00012101FA00F002900298019900
:103EE000D1F81C2222EA0000C1F81C020398C06924
:103EF00000281FD1FFE702980199D1F80C2222EA8D
:103F00000000C1F80C0203988188C268406941EA48
:103F10000241019A02EBC000C0F8401203980188E8
:103F20008268406941EA0241019A02EBC000C0F890
:103F30004412FFE70398C06901281ED1FFE70298E9
:103F40000199D1F80C221043C1F80C020398818822
:103F50000268406941EA0241019A02EBC000C0F8E0
:103F60004012039881898268406941EA0241019ABE
:103F700002EBC000C0F84412FFE7039880690028F4
:103F800009D1FFE702980199D1F8042222EA000042
:103F9000C1F8040207E002980199D1F80422104305
:103FA000C1F80402FFE703980069002809D1FFE780
:103FB00002980199D1F8142222EA0000C1F81402F3
:103FC00007E002980199D1F814221043C1F81402B5
:103FD000FFE70398006A012808D1FFE702980199DA
:103FE000D1F81C221043C1F81C02FFE70198D0F859
:103FF000001221F00101C0F8001200208DF8170016
:1040000008E00498416A41F48021416201208DF862
:104010001700FFE79DF8170006B0704781B00090C9
:1040200001B0704786B00490039102920193049806
:1040300090F820008DF803009DF80300012806D0B9
:10404000FFE79DF80300022840F0DC80FFE70398BB
:10405000002811D1FFE704980068C0688007002895
:1040600009D1FFE70498416A41F40011416201203F
:104070008DF81700CFE010E0049800680069800711
:10408000002809D1FFE70498416A41F40011416218
:1040900001208DF81700BEE0FFE70498006803993F
:1040A00000EB0110D0F8B00100F004000299886024
:1040B0000298806800280BD1FFE7049800680399F4
:1040C00000EB0110D0F8B001400D029908600AE041
:1040D00004980068039900EB0110D0F8B001C00803
:1040E00002994860FFE704980068039900EB01100B
:1040F000D0F8B00100F002000299C860049800688E
:10410000039900EB0110D0F8B40100F00F00029900
:10411000086104980068039900EB0110D0F8B4011D
:1041200080B2000A0299886104980068039900EB44
:104130000110D0F8B401000C02994861049800689D
:10414000039900EB0110D0F8B801019908700498A8
:104150000068039900EB0110D0F8B801000A01993A
:10416000487004980068039900EB0110D0F8B8017A
:10417000000C0199887004980068039900EB011005
:10418000D0F8B801000E0199C8700498006803992E
:1041900000EB0110D0F8BC01019908710498006887
:1041A000039900EB0110D0F8BC01000A0199487195
:1041B00004980068039900EB0110D0F8BC01000CD2
:1041C0000199887104980068039900EB0110D0F8F8
:1041D000BC01000E0199C8710398002807D1FFE7C0
:1041E00004980068C16841F02001C16006E00498AD
:1041F0000068016941F020010161FFE700208DF8AE
:10420000170008E00498416A41F4802141620120CE
:104210008DF81700FFE79DF8170006B07047000003
:1042200080B58AB00990002008900998006840691C
:1042300007900998006840680690099800688068AF
:10424000059009980068C0680490099800680069A2
:10425000039009980068806902909DF81C00C007CF
:10426000002800F09780FFE79DF81400C0070028A1
:104270002BD0FFE709980068012181609DF81400A8
:104280008007002804D5FFE7099800F057FD1BE0E0
:104290009DF814004007002805D5FFE7089840F472
:1042A000006008900FE09DF814000007002805D575
:1042B000FFE7089840F48050089003E0099800F068
:1042C00039FDFFE7FFE7FFE7FFE79DF81500C007AF
:1042D00000282CD0FFE7099800684FF480718160B6
:1042E0009DF815008007002804D5FFE7099800F025
:1042F0002DFD1BE09DF815004007002805D5FFE7C0
:10430000089840F4005008900FE09DF81500000751
:10431000002805D5FFE7089840F48040089003E0A6
:10432000099800F00FFDFFE7FFE7FFE7FFE79DF8C3
:104330001600C00700282CD0FFE7099800684FF44A
:10434000803181609DF816008007002804D5FFE7C2
:10435000099800F003FD1BE09DF8160040070028B7
:1043600005D5FFE7089840F4004008900FE09DF85D
:1043700016000007002805D5FFE7089840F48030B4
:10438000089003E0099800F0E5FCFFE7FFE7FFE78E
:10439000FFE7FFE79DF81C000007002810D5FFE7A6
:1043A0009DF81000C006002809D5FFE7089840F4E2
:1043B00000700890099800681021C160FFE7FFE7CE
:1043C0009DF81C00400700280FD5FFE79DF810005E
:1043D0000007002808D5FFE7099800680821C16098
:1043E000099800F0D7FAFFE7FFE79DF81C00800767
:1043F00000280CD5FFE709980068C06880070028EE
:1044000004D0FFE7099800F0C9FAFFE7FFE79DF83D
:104410001C004006002810D5FFE79DF80C00C006E0
:10442000002809D5FFE7089840F4806008900998B3
:10443000006810210161FFE7FFE79DF81C0080067E
:1044400000280FD5FFE79DF80C000007002808D5CD
:10445000FFE70998006808210161099800F018FC3D
:10446000FFE7FFE79DF81C00C00600280CD5FFE71A
:104470000998006800698007002804D0FFE70998C0
:1044800000F00AFCFFE7FFE79DF81E008007002808
:104490000FD5FFE79DF81800C006002808D5FFE7F4
:1044A0000998006810214160099800F0F9FBFFE7C6
:1044B000FFE79DF81E00C00700280FD0FFE79DF81A
:1044C00018000007002808D5FFE7099800680821B0
:1044D0004160099800F046FCFFE7FFE79DF81D00EA
:1044E0000006002840F18F80FFE79DF81800400784
:1044F000002840F18380FFE79DF81D00C0070028D9
:104500000BD0FFE79DF80800C007002805D0FFE7A3
:10451000089840F001000890FFE79DF81D00800713
:1045200000280BD5FFE79DF808008007002805D577
:10453000FFE7089840F002000890FFE79DF81D0093
:10454000400700280BD5FFE79DF80800400700282A
:1045500005D5FFE7089840F004000890FFE79DF8B4
:104560001D000007002848D5FFE79DF8080010F05F
:10457000700F42D0FFE7029800F07000014610284B
:10458000019114D0FFE70198202815D0FFE701988A
:10459000302816D0FFE70198402817D0FFE7019890
:1045A000502818D0FFE70198602819D01DE008981E
:1045B00040F00800089019E0089840F010000890BA
:1045C00014E0089840F0200008900FE0089840F0B0
:1045D000400008900AE0089840F08000089005E04C
:1045E000089840F48070089000E0FFE709980068A0
:1045F000816921F070018161FFE7FFE70998006898
:1046000004214160FFE70898002809D0FFE70898D7
:1046100009994A6A104348620998FFF7FFFCFFE7CF
:104620000AB080BD80B584B002900298002804D101
:10463000FFE701208DF80F00E2E0029890F82000DB
:10464000002804D1FFE7029800F0DEF8FFE70298A7
:104650000068016841F00101016001F0FFF801907C
:10466000FFE7029800684068C007002815D1FFE7FF
:1046700001F0F4F80199401A0B280DD3FFE70298D6
:10468000416A41F4003141620298052180F820100E
:1046900001208DF80F00B3E0E3E70298006801689D
:1046A00021F00201016001F0D9F80190FFE70298C2
:1046B000006840688007002815D5FFE701F0CEF8B4
:1046C0000199401A0B280DD3FFE70298416A41F483
:1046D000003141620298052180F8201001208DF8F8
:1046E0000F008DE0E3E70298007E012807D1FFE785
:1046F00002980068016841F08001016006E00298BC
:104700000068016821F080010160FFE70298407EA7
:10471000012807D1FFE702980068016841F04001D5
:10472000016006E002980068016821F04001016024
:10473000FFE70298807E012807D1FFE70298006812
:10474000016841F02001016006E0029800680168FC
:1047500021F020010160FFE70298C07E012807D107
:10476000FFE702980068016821F01001016006E08F
:1047700002980068016841F010010160FFE70298AB
:10478000007F012807D1FFE702980068016841F027
:104790000801016006E002980068016821F0080144
:1047A0000160FFE70298407F012807D1FFE70298E8
:1047B0000068016841F00401016006E002980068A9
:1047C000016821F004010160FFE702980168426876
:1047D0008368D0F80CC043EA0C03D0F810C043EA59
:1047E0000C0340691843013A1043C8610298002144
:1047F00041620298012280F820208DF80F10FFE717
:104800009DF80F0004B080BD80B590B00F900020DF
:104810000E900D900C900B900A900F98006846F245
:104820000041C4F2000188424AD1FFE740F2BC30A7
:10483000C2F200000168013101600068012812D154
:10484000FFE7FFE70020099043F64000C4F20200B2
:10485000016841F000710160006800F0007009908B
:104860000998FFE7FFE7FFE70020089043F63000D4
:10487000C4F20200016841F008010160006800F024
:10488000080008900898FFE703200A9002210B9186
:1048900000210C910D9009200E9040F60040C4F2CA
:1048A00002000AAA0491114600F0DCFD1420052143
:1048B0000390049A01F0BAF8039801F0ABF866E0AF
:1048C0000F98006846F60001C4F2000188425DD1ED
:1048D000FFE7FFE70020079043F64000C4F2020024
:1048E000016841F080610160006800F0806007901D
:1048F0000798FFE740F2BC30C2F2000001680131C6
:1049000001600068012812D1FFE7FFE70020069050
:1049100043F64000C4F20200016841F000710160FA
:10492000006800F0007006900698FFE7FFE7FFE7D9
:104930000020059043F63000C4F20200016841F007
:1049400002010160006800F0020005900598FFE791
:1049500060200A9002200B9000200C9003210D9102
:1049600009210E9140F20041C4F202010AAA02900C
:104970000846114600F076FD402005210190029A7C
:1049800001F054F8019801F045F8FFE7FFE710B097
:1049900080BD000081B0009001B0704780B584B048
:1049A0000390039841F6F422C2F2000241F6EC2390
:1049B000C2F200030021FFF735FB0399096846F6B0
:1049C0000002C4F20002914240F0D880FFE741F6B5
:1049D000F420C2F200000068A0F20520014603287E
:1049E000029100F2C9800299DFE801F05702ACB9E8
:1049F00041F6F420C2F200000068039941F6EC226F
:104A0000C2F2000205F038FA40F24840C2F200005B
:104A100001880089081AB0F5FA5F07DDFFE741F267
:104A20004820C2F2000000210160FFE740F2484048
:104A3000C2F2000001890088081AB0F5FA5F07DDAC
:104A4000FFE741F24820C2F2000001210160FFE7C8
:104A500040F2FC40C2F2000001880089081AB0F55B
:104A6000FA5F07DDFFE741F6AC20C2F2000000214B
:104A70000160FFE740F2FC40C2F2000001890088BB
:104A8000081AB0F5FA5F07DDFFE741F6AC20C2F285
:104A9000000001210160FFE76FE041F6F420C2F25F
:104AA00000000068039941F6EC22C2F2000205F012
:104AB000E3F940F24840C2F2000001880089081A78
:104AC000B0F5FA5F07DDFFE741F24820C2F20000CF
:104AD00000210160FFE740F24840C2F20000018976
:104AE0000088081AB0F5FA5F07DDFFE741F24820B9
:104AF000C2F2000001210160FFE740F2FC40C2F277
:104B0000000001880089081AB0F5FA5F07DDFFE7A9
:104B100041F6AC20C2F2000000210160FFE740F244
:104B2000FC40C2F2000001890088081AB0F5FA5F63
:104B300007DDFFE741F6AC20C2F200000121016071
:104B4000FFE71AE041F6F420C2F200000068039982
:104B500041F6EC22C2F2000205F08EF90DE041F6BA
:104B6000F420C2F200000068039941F6EC22C2F280
:104B7000000205F081F900E0FFE781E0039800689A
:104B800046F20041C4F20001884278D1FFE741F6C5
:104B9000F420C2F200000068B0F5837F019050D08D
:104BA000FFE740F207100199814255D0FFE70198D5
:104BB000B0F5887F51D0FFE740F211100199814292
:104BC0005AD0FFE740F205200199814255D1FFE715
:104BD00040F64810C2F200000188018141F6EC2144
:104BE000C2F200010A784B7843EA022202808A78F6
:104BF000CB7843EA022242800A794B7943EA0222C7
:104C0000828089798171018800EE101AB8EEC00A9D
:104C10009FED1C1A80EE010A9FED1B1A20EE010A7F
:104C20009FED1A2A30EE020A80ED030AB0F9021055
:104C300000EE101AB8EEC00A20EE010A80ED040A58
:104C40001CE041F6EC20C2F20000008840F2A811FE
:104C5000C2F20001088011E010E041F6EC20C2F23F
:104C600000000168D0F8030040F29B42C2F200024B
:104C7000C2F80300116001E000E0FFE7FFE7FFE793
:104C800004B080BD00F8FF450000B443000034C309
:104C900081B0009001B0704781B0009001B07047C2
:104CA00081B0009001B0704780B584B00290029846
:104CB00090F82000012830D1FFE70298022180F807
:104CC000201002980068016821F00101016000F0E5
:104CD000C5FD0190FFE7029800684068C007002802
:104CE00015D0FFE700F0BAFD0199401A0B280DD34B
:104CF000FFE70298416A41F40031416202980521C0
:104D000080F8201001208DF80F000FE0E3E70298F3
:104D1000002141628DF80F1008E00298416A41F4C9
:104D20000021416201208DF80F00FFE79DF80F0080
:104D300004B080BD81B0009001B0704781B0009098
:104D400001B0704781B0009001B0704781B0009011
:104D500001B0704781B0009001B0704781B0009001
:104D600001B0704781B0009001B0704780B584B049
:104D700002900298806D019000F070FD0090029802
:104D800090F8350002280DD0FFE702988021416598
:104D9000FFE70298002180F83410FFE701208DF82A
:104DA0000F0059E002980068016821F016010160C7
:104DB00002980068416921F0800141610298006C0D
:104DC000002805D1FFE70298806C002807D0FFE794
:104DD00002980068016821F008010160FFE702986D
:104DE0000068016821F001010160FFE70298006896
:104DF0000068C007002819D0FFE700F02FFD0099D8
:104E0000401A062811D3FFE7029820214165029835
:104E1000032180F83510FFE70298002180F8341054
:104E2000FFE703208DF80F0016E0DFE70298C06D62
:104E30003F2101FA00F0019988600298012180F871
:104E40003510FFE70298002180F83410FFE7FFE7F4
:104E500000208DF80F00FFE79DF80F0004B080BD23
:104E600082B00090009890F83500022807D0FFE744
:104E700000988021416501208DF807000EE0009820
:104E8000052180F8351000980068016821F00101C3
:104E90000160FFE700208DF80700FFE79DF807009D
:104EA00002B0704780B586B005900020039040F2B4
:104EB0003C00C2F20000006848F2B511C1F64E3164
:104EC000A0FB0101890A02910599896D019101995F
:104ED000096804910499059AD26DD1400907002907
:104EE0001BD5FFE70598006800684007002813D528
:104EF000FFE705980068016821F00401016005984A
:104F0000C06D082101FA00F0019988600598416D93
:104F100041F001014165FFE7FFE704980599C96D7C
:104F2000C840C007002815D0FFE705980068406911
:104F3000000600280DD5FFE70598C06D012101FA94
:104F400000F0019988600598416D41F002014165CA
:104F5000FFE7FFE704980599C96DC840400700289E
:104F600015D5FFE7059800680068800700280DD573
:104F7000FFE70598C06D042101FA00F001998860EF
:104F80000598416D41F004014165FFE7FFE7049892
:104F90000599C96DC840C00600284BD5FFE70598A4
:104FA000006800680007002843D5FFE70598C06D3A
:104FB000102101FA00F001998860059800680068E6
:104FC000400300281CD5FFE705980068006800032F
:104FD00000280AD4FFE70598006C002804D0FFE7FA
:104FE0000598016C8847FFE709E00598806C002868
:104FF00004D0FFE70598816C8847FFE7FFE717E0DB
:10500000059800680068C005002807D4FFE70598E8
:105010000068016821F008010160FFE70598006C55
:10502000002804D0FFE70598016C8847FFE7FFE7F9
:10503000FFE7FFE704980599C96DC840800600287E
:1050400040F19580FFE7059800680068C0060028D9
:1050500040F18C80FFE70598C06D202101FA00F037
:1050600001998860059890F83500052838D1FFE748
:1050700005980068016821F0160101600598006834
:10508000416921F0800141610598006C002805D13B
:10509000FFE70598806C002807D0FFE705980068B7
:1050A000016821F008010160FFE70598C06D3F210C
:1050B00001FA00F0019988600598012180F8351007
:1050C000FFE70598002180F83410FFE70598006D90
:1050D000002804D0FFE70598016D8847FFE781E0CD
:1050E000059800680068400300281CD5FFE7059874
:1050F00000680068000300280AD4FFE70598406CA8
:10510000002804D0FFE70598416C8847FFE709E0D5
:105110000598C06B002804D0FFE70598C16B88474D
:10512000FFE7FFE721E0059800680068C005002858
:1051300011D4FFE705980068016821F010010160B3
:105140000598012180F83510FFE70598002180F8C7
:105150003410FFE7FFE70598C06B002804D0FFE795
:105160000598C16B8847FFE7FFE7FFE7FFE7059872
:10517000406D002836D0FFE70598406DC007002835
:1051800026D0FFE70598052180F8351005980068BE
:10519000016821F001010160FFE7039801300390ED
:1051A0000299884201D9FFE707E0FFE70598006808
:1051B0000068C0070028F0D1FFE70598012180F8BA
:1051C0003510FFE70598002180F83410FFE7FFE76E
:1051D0000598C06C002804D0FFE70598C16C88478B
:1051E000FFE7FFE706B080BD80B586B004900020E1
:1051F000039000F033FB02900498002804D1FFE7ED
:1052000001208DF81700A7E00498406A002801D01B
:10521000FFE7FFE70498022180F83510FFE70498C4
:10522000002180F83410FFE704980068016821F03D
:1052300001010160FFE7049800680068C0070028CA
:1052400012D0FFE700F00AFB0299401A06280AD3A1
:10525000FFE70498202141650498032180F8351068
:105260008DF8171078E0E6E704980068006803906E
:10527000039848F23F01CFF21001084003900498D0
:1052800041688268C368D0F810C01143194341EAED
:105290000C014269114382691143C2691143006ADA
:1052A00008430399084303900498406A042808D1EE
:1052B000FFE70498C16A006B084303990843039011
:1052C000FFE703980499096808600498006840693A
:1052D0000390039820F0070003900498406A039914
:1052E000084303900498406A04281CD1FFE70498FF
:1052F000806A0399084303900498C06A002811D07B
:10530000FFE70498FEF724FB00280AD0FFE7049883
:10531000402141650498012180F835108DF817105F
:105320001AE0FFE7FFE703980499096848610498C9
:10533000FEF7E2FA01900498C06D3F2101FA00F0F7
:10534000019988600498002141650498012280F841
:1053500035208DF81710FFE79DF8170006B080BDC7
:1053600080B584B0039000F079FA02900398019020
:1053700001980130002809D0FFE740F21410C2F272
:1053800000000078019908440190FFE7FFE700F072
:1053900065FA0299401A0199884201D2FFE7F6E7BF
:1053A00004B080BD80B582B00146ADF80600BDF8FE
:1053B000060010281CD1FFE740F66A10C2F2000078
:1053C000017841F00101017040F66910C2F200005D
:1053D000017841F00101017041F2DA10C2F20000DF
:1053E0000078002803D0FFE70DF02AFEFFE719E060
:1053F000BDF80600202814D1FFE740F66730C2F25E
:105400000000017841F00101017041F2DA10C2F2AE
:1054100000000078002803D0FFE70DF011FEFFE741
:10542000FFE7FFE702B080BD80B582B00146ADF86E
:10543000060043F61440C4F201000068BDF80620DF
:1054400010420CD0FFE7BDF8060043F61441C4F249
:1054500001010860BDF80600FFF7A4FFFFE702B0F6
:1054600080BD00008EB00D900C9100200A90099034
:1054700008900B90FFE70B980F2800F2D281FFE70E
:105480000B98012101FA00F00A900C9800680A9923
:105490000840099009980A99884240F0BD81FFE7C9
:1054A0000C98406800F00300012807D0FFE70C9833
:1054B000406800F0030002282FD1FFE70D988068B4
:1054C00008900B984000032101FA00F0089921EAA6
:1054D000000008900C98C0680B9949008840089912
:1054E0000843089008980D9988600D9840680890C6
:1054F0000B98012101FA00F0089921EA00000890B8
:105500000C984068C0F300100B9988400899084334
:10551000089008980D994860FFE70C98406800F0E3
:105520000300032818D0FFE70D98C06808900B9877
:105530004000032101FA00F0089921EA00000890D8
:105540000C9880680B994900884008990843089096
:1055500008980D99C860FFE70C98406800F00300B8
:10556000022826D1FFE70D980B996FF0030202EA9B
:1055700051010844006A08900B9800F00700800071
:105580000F2101FA00F0089921EA000008900C9818
:1055900000690B9901F007018900884008990843C8
:1055A000089008980D990B9B02EA53021144086277
:1055B000FFE70D98006808900B984000032101FA5E
:1055C00000F0089921EA000008900C98406800F06B
:1055D00003000B99490088400899084308900898EF
:1055E0000D9908600C9880798007002800F01381DD
:1055F000FFE7FFE70020079043F64400C4F20200F3
:10560000016841F480410160006800F48040079027
:105610000798FFE70B9820F0030043F60801C4F257
:105620000101405808900B9800F0030080000F2102
:1056300001FA00F0089921EA000008900D98002175
:10564000C4F20201884203D1FFE7002006905EE029
:105650000D9840F20041C4F20201884203D1FFE7F5
:105660000120059050E00D9840F60001C4F20201BF
:10567000884203D1FFE70220049042E00D9840F6F3
:105680000041C4F20201884203D1FFE703200390E6
:1056900034E00D9841F20001C4F20201884203D1C6
:1056A000FFE70420029026E00D9841F20041C4F289
:1056B0000201884203D1FFE70520019018E00D9810
:1056C00041F60001C4F20201884203D1FFE706203F
:1056D00000900AE00D9841F60041C4F20201082250
:1056E000884208BF07220092FFE700980190FFE779
:1056F00001980290FFE702980390FFE70398049057
:10570000FFE704980590FFE705980690FFE70698E5
:10571000C0B20B9901F00301890088400899084341
:10572000089008980B9921F0030143F60802C4F28F
:105730000102885043F60840C4F201000068089056
:105740000998089921EA000008900C988079C00611
:10575000002805D5FFE70998089908430890FFE756
:10576000089843F60841C4F20101086043F60C4072
:10577000C4F20100006808900998089921EA000025
:1057800008900C9880798006002805D5FFE70998D5
:10579000089908430890FFE7089843F60C41C4F2C3
:1057A0000101086043F60440C4F20100006808905B
:1057B0000998089921EA000008900C9880798007E0
:1057C000002805D5FFE70998089908430890FFE7E6
:1057D000089843F60441C4F20101086043F6004012
:1057E000C4F20100006808900998089921EA0000B5
:1057F00008900C988079C007002805D0FFE7099829
:10580000089908430890FFE7089843F60041C4F25E
:1058100001010860FFE7FFE7FFE70B9801300B90FD
:1058200029E60EB07047000082B013468C46019006
:10583000ADF802108DF801209DF80100002805D078
:10584000FFE7BDF802000199886105E0BDF802009C
:10585000000401998861FFE702B0704745F63060A7
:10586000C2F200000068704740F21410C2F200005B
:10587000007845F63061C2F200010A681044086001
:105880007047000080B582B043F60040C4F20200C9
:10589000016841F400710160016841F480610160B8
:1058A000016841F480710160032000F0DFF80F20EF
:1058B00000F006F8019000F081F8002002B080BDF1
:1058C00080B58EB00D90002006900590FFE7002077
:1058D000029043F64000C4F20200016841F020014A
:1058E0000160006800F0200002900298FFE708A81D
:1058F00004A900F0F5F90B9806900698002804D149
:10590000FFE700F01DFA079004E000F019FA4000EC
:105910000790FFE707984DF68361C4F21B31A0FBA7
:1059200001014FF0FF3202EB9141059141F260011C
:10593000C2F2000141F20042C4F200020A6040F2E9
:10594000E732CA60059A4A6000220A618A608A6169
:105950000190084601F0FAF98DF80F009DF80F004C
:10596000002826D1FFE741F26000C2F2000001F0FA
:105970002DFB8DF80F009DF80F00002818D1FFE7D0
:10598000372000F047F80D980F280CD8FFE70D9945
:105990003720002200F04AF80D9840F21811C2F2A8
:1059A0000001086003E001208DF80F00FFE7FFE72A
:1059B000FFE79DF80F000EB080BD000080B582B0FB
:1059C000FFE70020019043F64400C4F202000168A2
:1059D00041F480410160006800F48040019001982A
:1059E000FFE7FFE70020009043F64000C4F202000A
:1059F000016841F080510160006800F08050009023
:105A00000098FFE76FF001000F21002200F00EF870
:105A100002B080BD80B582B001468DF807009DF9C7
:105A2000070000910CF02EFC02B080BD80B588B05C
:105A300003468DF81F000691059200200490039301
:105A40000CF03AFC04909DF91F000499069A059BFE
:105A50000290084611461A4604F00EFB0299019086
:105A6000084601990CF030FC08B080BD80B582B0CA
:105A7000019001980CF04AFC02B080BD80B584B062
:105A8000029001910298002804D1FFE701208DF8CF
:105A90000F0021E1019843F60041C4F202010968B8
:105AA00001F00701884212D9FFE7019843F600414F
:105AB000C4F202010870086800F0070001998842EA
:105AC00004D0FFE701208DF80F0005E1FFE7029801
:105AD0000078800700282AD5FFE702980078400761
